{
  "contractName": "Healthcare",
  "abi": [
    {
      "inputs": [
        {
          "internalType": "address",
          "name": "initialOwner",
          "type": "address"
        },
        {
          "internalType": "address",
          "name": "tokenAddress",
          "type": "address"
        }
      ],
      "stateMutability": "nonpayable",
      "type": "constructor"
    },
    {
      "inputs": [
        {
          "internalType": "address",
          "name": "owner",
          "type": "address"
        }
      ],
      "name": "OwnableInvalidOwner",
      "type": "error"
    },
    {
      "inputs": [
        {
          "internalType": "address",
          "name": "account",
          "type": "address"
        }
      ],
      "name": "OwnableUnauthorizedAccount",
      "type": "error"
    },
    {
      "anonymous": false,
      "inputs": [
        {
          "indexed": true,
          "internalType": "address",
          "name": "previousOwner",
          "type": "address"
        },
        {
          "indexed": true,
          "internalType": "address",
          "name": "newOwner",
          "type": "address"
        }
      ],
      "name": "OwnershipTransferred",
      "type": "event"
    },
    {
      "inputs": [],
      "name": "owner",
      "outputs": [
        {
          "internalType": "address",
          "name": "",
          "type": "address"
        }
      ],
      "stateMutability": "view",
      "type": "function"
    },
    {
      "inputs": [
        {
          "internalType": "address",
          "name": "",
          "type": "address"
        }
      ],
      "name": "patientRecords",
      "outputs": [
        {
          "internalType": "address",
          "name": "patient",
          "type": "address"
        },
        {
          "internalType": "string",
          "name": "data",
          "type": "string"
        },
        {
          "internalType": "bool",
          "name": "isAuthorized",
          "type": "bool"
        }
      ],
      "stateMutability": "view",
      "type": "function"
    },
    {
      "inputs": [],
      "name": "renounceOwnership",
      "outputs": [],
      "stateMutability": "nonpayable",
      "type": "function"
    },
    {
      "inputs": [
        {
          "internalType": "address",
          "name": "",
          "type": "address"
        }
      ],
      "name": "reputation",
      "outputs": [
        {
          "internalType": "uint256",
          "name": "",
          "type": "uint256"
        }
      ],
      "stateMutability": "view",
      "type": "function"
    },
    {
      "inputs": [],
      "name": "token",
      "outputs": [
        {
          "internalType": "contract ERC20",
          "name": "",
          "type": "address"
        }
      ],
      "stateMutability": "view",
      "type": "function"
    },
    {
      "inputs": [
        {
          "internalType": "address",
          "name": "newOwner",
          "type": "address"
        }
      ],
      "name": "transferOwnership",
      "outputs": [],
      "stateMutability": "nonpayable",
      "type": "function"
    },
    {
      "inputs": [
        {
          "internalType": "address",
          "name": "patient",
          "type": "address"
        },
        {
          "internalType": "string",
          "name": "data",
          "type": "string"
        }
      ],
      "name": "storeData",
      "outputs": [],
      "stateMutability": "nonpayable",
      "type": "function"
    },
    {
      "inputs": [
        {
          "internalType": "address",
          "name": "patient",
          "type": "address"
        }
      ],
      "name": "getData",
      "outputs": [
        {
          "internalType": "string",
          "name": "",
          "type": "string"
        }
      ],
      "stateMutability": "view",
      "type": "function"
    },
    {
      "inputs": [
        {
          "internalType": "address",
          "name": "patient",
          "type": "address"
        }
      ],
      "name": "authorizeAccess",
      "outputs": [],
      "stateMutability": "nonpayable",
      "type": "function"
    },
    {
      "inputs": [
        {
          "internalType": "address",
          "name": "provider",
          "type": "address"
        },
        {
          "internalType": "uint256",
          "name": "score",
          "type": "uint256"
        }
      ],
      "name": "addReputation",
      "outputs": [],
      "stateMutability": "nonpayable",
      "type": "function"
    }
  ],
  "bytecode": "0x608060405234801562000010575f80fd5b506040516200139a3803806200139a83398181016040528101906200003691906200022a565b815f73ffffffffffffffffffffffffffffffffffffffff168173ffffffffffffffffffffffffffffffffffffffff1603620000aa575f6040517f1e4fbdf7000000000000000000000000000000000000000000000000000000008152600401620000a1919062000280565b60405180910390fd5b620000bb816200010460201b60201c565b508060035f6101000a81548173ffffffffffffffffffffffffffffffffffffffff021916908373ffffffffffffffffffffffffffffffffffffffff16021790555050506200029b565b5f805f9054906101000a900473ffffffffffffffffffffffffffffffffffffffff169050815f806101000a81548173ffffffffffffffffffffffffffffffffffffffff021916908373ffffffffffffffffffffffffffffffffffffffff1602179055508173ffffffffffffffffffffffffffffffffffffffff168173ffffffffffffffffffffffffffffffffffffffff167f8be0079c531659141344cd1fd0a4f28419497f9722a3daafe3b4186f6b6457e060405160405180910390a35050565b5f80fd5b5f73ffffffffffffffffffffffffffffffffffffffff82169050919050565b5f620001f482620001c9565b9050919050565b6200020681620001e8565b811462000211575f80fd5b50565b5f815190506200022481620001fb565b92915050565b5f8060408385031215620002435762000242620001c5565b5b5f620002528582860162000214565b9250506020620002658582860162000214565b9150509250929050565b6200027a81620001e8565b82525050565b5f602082019050620002955f8301846200026f565b92915050565b6110f180620002a95f395ff3fe608060405234801561000f575f80fd5b506004361061009c575f3560e01c8063d242d7af11610064578063d242d7af1461015a578063e24f831314610176578063eed1421814610192578063f2fde38b146101ae578063fc0c546a146101ca5761009c565b8063200a1b91146100a057806338266b22146100d2578063715018a6146101025780638da5cb5b1461010c578063b9f794511461012a575b5f80fd5b6100ba60048036038101906100b591906108e5565b6101e8565b6040516100c9939291906109c3565b60405180910390f35b6100ec60048036038101906100e791906108e5565b6102bf565b6040516100f991906109ff565b60405180910390f35b61010a61041b565b005b61011461042e565b6040516101219190610a1f565b60405180910390f35b610144600480360381019061013f91906108e5565b610455565b6040516101519190610a50565b60405180910390f35b610174600480360381019061016f9190610b95565b61046a565b005b610190600480360381019061018b9190610c19565b610563565b005b6101ac60048036038101906101a791906108e5565b6105ba565b005b6101c860048036038101906101c391906108e5565b610682565b005b6101d2610706565b6040516101df9190610cb2565b60405180910390f35b6001602052805f5260405f205f91509050805f015f9054906101000a900473ffffffffffffffffffffffffffffffffffffffff169080600101805461022c90610cf8565b80601f016020809104026020016040519081016040528092919081815260200182805461025890610cf8565b80156102a35780601f1061027a576101008083540402835291602001916102a3565b820191905f5260205f20905b81548152906001019060200180831161028657829003601f168201915b505050505090806002015f9054906101000a900460ff16905083565b606060015f8373ffffffffffffffffffffffffffffffffffffffff1673ffffffffffffffffffffffffffffffffffffffff1681526020019081526020015f206002015f9054906101000a900460ff1661034d576040517f08c379a000000000000000000000000000000000000000000000000000000000815260040161034490610d72565b60405180910390fd5b60015f8373ffffffffffffffffffffffffffffffffffffffff1673ffffffffffffffffffffffffffffffffffffffff1681526020019081526020015f20600101805461039890610cf8565b80601f01602080910402602001604051908101604052809291908181526020018280546103c490610cf8565b801561040f5780601f106103e65761010080835404028352916020019161040f565b820191905f5260205f20905b8154815290600101906020018083116103f257829003601f168201915b50505050509050919050565b61042361072b565b61042c5f6107b2565b565b5f805f9054906101000a900473ffffffffffffffffffffffffffffffffffffffff16905090565b6002602052805f5260405f205f915090505481565b61047261072b565b60405180606001604052808373ffffffffffffffffffffffffffffffffffffffff1681526020018281526020016001151581525060015f8473ffffffffffffffffffffffffffffffffffffffff1673ffffffffffffffffffffffffffffffffffffffff1681526020019081526020015f205f820151815f015f6101000a81548173ffffffffffffffffffffffffffffffffffffffff021916908373ffffffffffffffffffffffffffffffffffffffff160217905550602082015181600101908161053c9190610f24565b506040820151816002015f6101000a81548160ff0219169083151502179055509050505050565b8060025f8473ffffffffffffffffffffffffffffffffffffffff1673ffffffffffffffffffffffffffffffffffffffff1681526020019081526020015f205f8282546105af9190611020565b925050819055505050565b8073ffffffffffffffffffffffffffffffffffffffff163373ffffffffffffffffffffffffffffffffffffffff1614610628576040517f08c379a000000000000000000000000000000000000000000000000000000000815260040161061f9061109d565b60405180910390fd5b6001805f8373ffffffffffffffffffffffffffffffffffffffff1673ffffffffffffffffffffffffffffffffffffffff1681526020019081526020015f206002015f6101000a81548160ff02191690831515021790555050565b61068a61072b565b5f73ffffffffffffffffffffffffffffffffffffffff168173ffffffffffffffffffffffffffffffffffffffff16036106fa575f6040517f1e4fbdf70000000000000000000000000000000000000000000000000000000081526004016106f19190610a1f565b60405180910390fd5b610703816107b2565b50565b60035f9054906101000a900473ffffffffffffffffffffffffffffffffffffffff1681565b610733610873565b73ffffffffffffffffffffffffffffffffffffffff1661075161042e565b73ffffffffffffffffffffffffffffffffffffffff16146107b057610774610873565b6040517f118cdaa70000000000000000000000000000000000000000000000000000000081526004016107a79190610a1f565b60405180910390fd5b565b5f805f9054906101000a900473ffffffffffffffffffffffffffffffffffffffff169050815f806101000a81548173ffffffffffffffffffffffffffffffffffffffff021916908373ffffffffffffffffffffffffffffffffffffffff1602179055508173ffffffffffffffffffffffffffffffffffffffff168173ffffffffffffffffffffffffffffffffffffffff167f8be0079c531659141344cd1fd0a4f28419497f9722a3daafe3b4186f6b6457e060405160405180910390a35050565b5f33905090565b5f604051905090565b5f80fd5b5f80fd5b5f73ffffffffffffffffffffffffffffffffffffffff82169050919050565b5f6108b48261088b565b9050919050565b6108c4816108aa565b81146108ce575f80fd5b50565b5f813590506108df816108bb565b92915050565b5f602082840312156108fa576108f9610883565b5b5f610907848285016108d1565b91505092915050565b610919816108aa565b82525050565b5f81519050919050565b5f82825260208201905092915050565b5f5b8381101561095657808201518184015260208101905061093b565b5f8484015250505050565b5f601f19601f8301169050919050565b5f61097b8261091f565b6109858185610929565b9350610995818560208601610939565b61099e81610961565b840191505092915050565b5f8115159050919050565b6109bd816109a9565b82525050565b5f6060820190506109d65f830186610910565b81810360208301526109e88185610971565b90506109f760408301846109b4565b949350505050565b5f6020820190508181035f830152610a178184610971565b905092915050565b5f602082019050610a325f830184610910565b92915050565b5f819050919050565b610a4a81610a38565b82525050565b5f602082019050610a635f830184610a41565b92915050565b5f80fd5b5f80fd5b7f4e487b71000000000000000000000000000000000000000000000000000000005f52604160045260245ffd5b610aa782610961565b810181811067ffffffffffffffff82111715610ac657610ac5610a71565b5b80604052505050565b5f610ad861087a565b9050610ae48282610a9e565b919050565b5f67ffffffffffffffff821115610b0357610b02610a71565b5b610b0c82610961565b9050602081019050919050565b828183375f83830152505050565b5f610b39610b3484610ae9565b610acf565b905082815260208101848484011115610b5557610b54610a6d565b5b610b60848285610b19565b509392505050565b5f82601f830112610b7c57610b7b610a69565b5b8135610b8c848260208601610b27565b91505092915050565b5f8060408385031215610bab57610baa610883565b5b5f610bb8858286016108d1565b925050602083013567ffffffffffffffff811115610bd957610bd8610887565b5b610be585828601610b68565b9150509250929050565b610bf881610a38565b8114610c02575f80fd5b50565b5f81359050610c1381610bef565b92915050565b5f8060408385031215610c2f57610c2e610883565b5b5f610c3c858286016108d1565b9250506020610c4d85828601610c05565b9150509250929050565b5f819050919050565b5f610c7a610c75610c708461088b565b610c57565b61088b565b9050919050565b5f610c8b82610c60565b9050919050565b5f610c9c82610c81565b9050919050565b610cac81610c92565b82525050565b5f602082019050610cc55f830184610ca3565b92915050565b7f4e487b71000000000000000000000000000000000000000000000000000000005f52602260045260245ffd5b5f6002820490506001821680610d0f57607f821691505b602082108103610d2257610d21610ccb565b5b50919050565b7f4e6f7420617574686f72697a65640000000000000000000000000000000000005f82015250565b5f610d5c600e83610929565b9150610d6782610d28565b602082019050919050565b5f6020820190508181035f830152610d8981610d50565b9050919050565b5f819050815f5260205f209050919050565b5f6020601f8301049050919050565b5f82821b905092915050565b5f60088302610dec7fffffffffffffffffffffffffffffffffffffffffffffffffffffffffffffffff82610db1565b610df68683610db1565b95508019841693508086168417925050509392505050565b5f610e28610e23610e1e84610a38565b610c57565b610a38565b9050919050565b5f819050919050565b610e4183610e0e565b610e55610e4d82610e2f565b848454610dbd565b825550505050565b5f90565b610e69610e5d565b610e74818484610e38565b505050565b5b81811015610e9757610e8c5f82610e61565b600181019050610e7a565b5050565b601f821115610edc57610ead81610d90565b610eb684610da2565b81016020851015610ec5578190505b610ed9610ed185610da2565b830182610e79565b50505b505050565b5f82821c905092915050565b5f610efc5f1984600802610ee1565b1980831691505092915050565b5f610f148383610eed565b9150826002028217905092915050565b610f2d8261091f565b67ffffffffffffffff811115610f4657610f45610a71565b5b610f508254610cf8565b610f5b828285610e9b565b5f60209050601f831160018114610f8c575f8415610f7a578287015190505b610f848582610f09565b865550610feb565b601f198416610f9a86610d90565b5f5b82811015610fc157848901518255600182019150602085019450602081019050610f9c565b86831015610fde5784890151610fda601f891682610eed565b8355505b6001600288020188555050505b505050505050565b7f4e487b71000000000000000000000000000000000000000000000000000000005f52601160045260245ffd5b5f61102a82610a38565b915061103583610a38565b925082820190508082111561104d5761104c610ff3565b5b92915050565b7f4f6e6c792070617469656e742063616e20617574686f72697a650000000000005f82015250565b5f611087601a83610929565b915061109282611053565b602082019050919050565b5f6020820190508181035f8301526110b48161107b565b905091905056fea2646970667358221220bbcca6e520439019ee9b592fcd25dc85b2482094330fdca65617652b34e9c4dd64736f6c63430008140033",
  "immutableReferences": {},
  "source": "// SPDX-License-Identifier: MIT\r\npragma solidity ^0.8.0;\r\n\r\nimport \"@openzeppelin/contracts/access/Ownable.sol\";\r\nimport \"@openzeppelin/contracts/token/ERC20/ERC20.sol\";\r\n\r\ncontract Healthcare is Ownable {\r\n    struct PatientData {\r\n        address patient;\r\n        string data;\r\n        bool isAuthorized;\r\n    }\r\n\r\n    mapping(address => PatientData) public patientRecords;\r\n    mapping(address => uint256) public reputation;\r\n\r\n    ERC20 public token;\r\n\r\n    // Update the constructor to accept the initial owner address and token address\r\n    constructor(address initialOwner, address tokenAddress) Ownable(initialOwner) {\r\n        token = ERC20(tokenAddress);\r\n    }\r\n\r\n    function storeData(address patient, string memory data) public onlyOwner {\r\n        patientRecords[patient] = PatientData(patient, data, true);\r\n    }\r\n\r\n    function getData(address patient) public view returns (string memory) {\r\n        require(patientRecords[patient].isAuthorized, \"Not authorized\");\r\n        return patientRecords[patient].data;\r\n    }\r\n\r\n    function authorizeAccess(address patient) public {\r\n        require(msg.sender == patient, \"Only patient can authorize\");\r\n        patientRecords[patient].isAuthorized = true;\r\n    }\r\n\r\n    function addReputation(address provider, uint256 score) public {\r\n        reputation[provider] += score;\r\n    }\r\n}\r\n",
  "sourcePath": "C:\\Users\\vamsi\\healthcare-app\\contracts\\Healthcare.sol",
  "compiler": {
    "name": "solc",
    "version": "0.8.20+commit.a1b79de6.Emscripten.clang"
  },
  "schemaVersion": "3.4.16",
  "updatedAt": "2024-11-14T10:32:19.949Z",
  "devdoc": {
    "errors": {
      "OwnableInvalidOwner(address)": [
        {
          "details": "The owner is not a valid owner account. (eg. `address(0)`)"
        }
      ],
      "OwnableUnauthorizedAccount(address)": [
        {
          "details": "The caller account is not authorized to perform an operation."
        }
      ]
    },
    "kind": "dev",
    "methods": {
      "owner()": {
        "details": "Returns the address of the current owner."
      },
      "renounceOwnership()": {
        "details": "Leaves the contract without owner. It will not be possible to call `onlyOwner` functions. Can only be called by the current owner. NOTE: Renouncing ownership will leave the contract without an owner, thereby disabling any functionality that is only available to the owner."
      },
      "transferOwnership(address)": {
        "details": "Transfers ownership of the contract to a new account (`newOwner`). Can only be called by the current owner."
      }
    },
    "version": 1
  },
  "userdoc": {
    "kind": "user",
    "methods": {},
    "version": 1
  }
}